{
  "contractName": "Wallet",
  "abi": [
    {
      "anonymous": false,
      "inputs": [
        {
          "indexed": true,
          "internalType": "address",
          "name": "previousOwner",
          "type": "address"
        },
        {
          "indexed": true,
          "internalType": "address",
          "name": "newOwner",
          "type": "address"
        }
      ],
      "name": "OwnershipTransferred",
      "type": "event"
    },
    {
      "inputs": [
        {
          "internalType": "address",
          "name": "",
          "type": "address"
        },
        {
          "internalType": "bytes32",
          "name": "",
          "type": "bytes32"
        }
      ],
      "name": "balances",
      "outputs": [
        {
          "internalType": "uint256",
          "name": "",
          "type": "uint256"
        }
      ],
      "stateMutability": "view",
      "type": "function",
      "constant": true
    },
    {
      "inputs": [],
      "name": "owner",
      "outputs": [
        {
          "internalType": "address",
          "name": "",
          "type": "address"
        }
      ],
      "stateMutability": "view",
      "type": "function",
      "constant": true
    },
    {
      "inputs": [],
      "name": "renounceOwnership",
      "outputs": [],
      "stateMutability": "nonpayable",
      "type": "function"
    },
    {
      "inputs": [
        {
          "internalType": "uint256",
          "name": "",
          "type": "uint256"
        }
      ],
      "name": "tokenList",
      "outputs": [
        {
          "internalType": "bytes32",
          "name": "",
          "type": "bytes32"
        }
      ],
      "stateMutability": "view",
      "type": "function",
      "constant": true
    },
    {
      "inputs": [
        {
          "internalType": "bytes32",
          "name": "",
          "type": "bytes32"
        }
      ],
      "name": "tokenMapping",
      "outputs": [
        {
          "internalType": "bytes32",
          "name": "ticker",
          "type": "bytes32"
        },
        {
          "internalType": "address",
          "name": "tokenAddress",
          "type": "address"
        }
      ],
      "stateMutability": "view",
      "type": "function",
      "constant": true
    },
    {
      "inputs": [
        {
          "internalType": "address",
          "name": "newOwner",
          "type": "address"
        }
      ],
      "name": "transferOwnership",
      "outputs": [],
      "stateMutability": "nonpayable",
      "type": "function"
    },
    {
      "inputs": [
        {
          "internalType": "bytes32",
          "name": "ticker",
          "type": "bytes32"
        },
        {
          "internalType": "address",
          "name": "tokenAddress",
          "type": "address"
        }
      ],
      "name": "addToken",
      "outputs": [],
      "stateMutability": "nonpayable",
      "type": "function"
    },
    {
      "inputs": [
        {
          "internalType": "uint256",
          "name": "amount",
          "type": "uint256"
        },
        {
          "internalType": "bytes32",
          "name": "ticker",
          "type": "bytes32"
        }
      ],
      "name": "deposit",
      "outputs": [],
      "stateMutability": "nonpayable",
      "type": "function"
    },
    {
      "inputs": [
        {
          "internalType": "uint256",
          "name": "amount",
          "type": "uint256"
        },
        {
          "internalType": "bytes32",
          "name": "ticker",
          "type": "bytes32"
        }
      ],
      "name": "withdraw",
      "outputs": [],
      "stateMutability": "nonpayable",
      "type": "function"
    }
  ],
  "bytecode": "0x608060405234801561001057600080fd5b5061002d61002261003260201b60201c565b61003a60201b60201c565b6100fe565b600033905090565b60008060009054906101000a900473ffffffffffffffffffffffffffffffffffffffff169050816000806101000a81548173ffffffffffffffffffffffffffffffffffffffff021916908373ffffffffffffffffffffffffffffffffffffffff1602179055508173ffffffffffffffffffffffffffffffffffffffff168173ffffffffffffffffffffffffffffffffffffffff167f8be0079c531659141344cd1fd0a4f28419497f9722a3daafe3b4186f6b6457e060405160405180910390a35050565b6111448061010d6000396000f3fe608060405234801561001057600080fd5b50600436106100935760003560e01c80639776aacf116100665780639776aacf146101215780639ead72221461013d578063a8d2021a1461016d578063c9630cb014610189578063f2fde38b146101a557610093565b80631f14df6914610098578063667cb4ba146100c8578063715018a6146100f95780638da5cb5b14610103575b600080fd5b6100b260048036038101906100ad9190610b85565b6101c1565b6040516100bf9190610bde565b60405180910390f35b6100e260048036038101906100dd9190610bf9565b6101e6565b6040516100f0929190610c44565b60405180910390f35b61010161022a565b005b61010b6102b2565b6040516101189190610c6d565b60405180910390f35b61013b60048036038101906101369190610c88565b6102db565b005b61015760048036038101906101529190610cf4565b610416565b6040516101649190610d21565b60405180910390f35b61018760048036038101906101829190610d3c565b61043a565b005b6101a3600480360381019061019e9190610d3c565b6106e4565b005b6101bf60048036038101906101ba9190610d7c565b6108fd565b005b6003602052816000526040600020602052806000526040600020600091509150505481565b60016020528060005260406000206000915090508060000154908060010160009054906101000a900473ffffffffffffffffffffffffffffffffffffffff16905082565b6102326109f4565b73ffffffffffffffffffffffffffffffffffffffff166102506102b2565b73ffffffffffffffffffffffffffffffffffffffff16146102a6576040517f08c379a000000000000000000000000000000000000000000000000000000000815260040161029d90610e06565b60405180910390fd5b6102b060006109fc565b565b60008060009054906101000a900473ffffffffffffffffffffffffffffffffffffffff16905090565b6102e36109f4565b73ffffffffffffffffffffffffffffffffffffffff166103016102b2565b73ffffffffffffffffffffffffffffffffffffffff1614610357576040517f08c379a000000000000000000000000000000000000000000000000000000000815260040161034e90610e06565b60405180910390fd5b60405180604001604052808381526020018273ffffffffffffffffffffffffffffffffffffffff16815250600160008481526020019081526020016000206000820151816000015560208201518160010160006101000a81548173ffffffffffffffffffffffffffffffffffffffff021916908373ffffffffffffffffffffffffffffffffffffffff16021790555090505060028290806001815401808255809150506001900390600052602060002001600090919091909150555050565b6002818154811061042657600080fd5b906000526020600020016000915090505481565b80600073ffffffffffffffffffffffffffffffffffffffff166001600083815260200190815260200160002060010160009054906101000a900473ffffffffffffffffffffffffffffffffffffffff1673ffffffffffffffffffffffffffffffffffffffff16036104e0576040517f08c379a00000000000000000000000000000000000000000000000000000000081526004016104d790610e72565b60405180910390fd5b82600360003373ffffffffffffffffffffffffffffffffffffffff1673ffffffffffffffffffffffffffffffffffffffff1681526020019081526020016000206000848152602001908152602001600020541015610573576040517f08c379a000000000000000000000000000000000000000000000000000000000815260040161056a90610ede565b60405180910390fd5b6105d683600360003373ffffffffffffffffffffffffffffffffffffffff1673ffffffffffffffffffffffffffffffffffffffff168152602001908152602001600020600085815260200190815260200160002054610ac090919063ffffffff16565b600360003373ffffffffffffffffffffffffffffffffffffffff1673ffffffffffffffffffffffffffffffffffffffff1681526020019081526020016000206000848152602001908152602001600020819055506001600083815260200190815260200160002060010160009054906101000a900473ffffffffffffffffffffffffffffffffffffffff1673ffffffffffffffffffffffffffffffffffffffff1663a9059cbb33856040518363ffffffff1660e01b815260040161069b929190610efe565b6020604051808303816000875af11580156106ba573d6000803e3d6000fd5b505050506040513d601f19601f820116820180604052508101906106de9190610f5f565b50505050565b80600073ffffffffffffffffffffffffffffffffffffffff166001600083815260200190815260200160002060010160009054906101000a900473ffffffffffffffffffffffffffffffffffffffff1673ffffffffffffffffffffffffffffffffffffffff160361078a576040517f08c379a000000000000000000000000000000000000000000000000000000000815260040161078190610e72565b60405180910390fd5b6001600083815260200190815260200160002060010160009054906101000a900473ffffffffffffffffffffffffffffffffffffffff1673ffffffffffffffffffffffffffffffffffffffff166323b872dd3330866040518463ffffffff1660e01b81526004016107fd93929190610f8c565b6020604051808303816000875af115801561081c573d6000803e3d6000fd5b505050506040513d601f19601f820116820180604052508101906108409190610f5f565b506108a483600360003373ffffffffffffffffffffffffffffffffffffffff1673ffffffffffffffffffffffffffffffffffffffff168152602001908152602001600020600085815260200190815260200160002054610ad690919063ffffffff16565b600360003373ffffffffffffffffffffffffffffffffffffffff1673ffffffffffffffffffffffffffffffffffffffff168152602001908152602001600020600084815260200190815260200160002081905550505050565b6109056109f4565b73ffffffffffffffffffffffffffffffffffffffff166109236102b2565b73ffffffffffffffffffffffffffffffffffffffff1614610979576040517f08c379a000000000000000000000000000000000000000000000000000000000815260040161097090610e06565b60405180910390fd5b600073ffffffffffffffffffffffffffffffffffffffff168173ffffffffffffffffffffffffffffffffffffffff16036109e8576040517f08c379a00000000000000000000000000000000000000000000000000000000081526004016109df90611035565b60405180910390fd5b6109f1816109fc565b50565b600033905090565b60008060009054906101000a900473ffffffffffffffffffffffffffffffffffffffff169050816000806101000a81548173ffffffffffffffffffffffffffffffffffffffff021916908373ffffffffffffffffffffffffffffffffffffffff1602179055508173ffffffffffffffffffffffffffffffffffffffff168173ffffffffffffffffffffffffffffffffffffffff167f8be0079c531659141344cd1fd0a4f28419497f9722a3daafe3b4186f6b6457e060405160405180910390a35050565b60008183610ace9190611084565b905092915050565b60008183610ae491906110b8565b905092915050565b600080fd5b600073ffffffffffffffffffffffffffffffffffffffff82169050919050565b6000610b1c82610af1565b9050919050565b610b2c81610b11565b8114610b3757600080fd5b50565b600081359050610b4981610b23565b92915050565b6000819050919050565b610b6281610b4f565b8114610b6d57600080fd5b50565b600081359050610b7f81610b59565b92915050565b60008060408385031215610b9c57610b9b610aec565b5b6000610baa85828601610b3a565b9250506020610bbb85828601610b70565b9150509250929050565b6000819050919050565b610bd881610bc5565b82525050565b6000602082019050610bf36000830184610bcf565b92915050565b600060208284031215610c0f57610c0e610aec565b5b6000610c1d84828501610b70565b91505092915050565b610c2f81610b4f565b82525050565b610c3e81610b11565b82525050565b6000604082019050610c596000830185610c26565b610c666020830184610c35565b9392505050565b6000602082019050610c826000830184610c35565b92915050565b60008060408385031215610c9f57610c9e610aec565b5b6000610cad85828601610b70565b9250506020610cbe85828601610b3a565b9150509250929050565b610cd181610bc5565b8114610cdc57600080fd5b50565b600081359050610cee81610cc8565b92915050565b600060208284031215610d0a57610d09610aec565b5b6000610d1884828501610cdf565b91505092915050565b6000602082019050610d366000830184610c26565b92915050565b60008060408385031215610d5357610d52610aec565b5b6000610d6185828601610cdf565b9250506020610d7285828601610b70565b9150509250929050565b600060208284031215610d9257610d91610aec565b5b6000610da084828501610b3a565b91505092915050565b600082825260208201905092915050565b7f4f776e61626c653a2063616c6c6572206973206e6f7420746865206f776e6572600082015250565b6000610df0602083610da9565b9150610dfb82610dba565b602082019050919050565b60006020820190508181036000830152610e1f81610de3565b9050919050565b7f546f6b656e20646f6573206e6f74206578697374000000000000000000000000600082015250565b6000610e5c601483610da9565b9150610e6782610e26565b602082019050919050565b60006020820190508181036000830152610e8b81610e4f565b9050919050565b7f42616c616e6365206e6f742073756666696369656e7421000000000000000000600082015250565b6000610ec8601783610da9565b9150610ed382610e92565b602082019050919050565b60006020820190508181036000830152610ef781610ebb565b9050919050565b6000604082019050610f136000830185610c35565b610f206020830184610bcf565b9392505050565b60008115159050919050565b610f3c81610f27565b8114610f4757600080fd5b50565b600081519050610f5981610f33565b92915050565b600060208284031215610f7557610f74610aec565b5b6000610f8384828501610f4a565b91505092915050565b6000606082019050610fa16000830186610c35565b610fae6020830185610c35565b610fbb6040830184610bcf565b949350505050565b7f4f776e61626c653a206e6577206f776e657220697320746865207a65726f206160008201527f6464726573730000000000000000000000000000000000000000000000000000602082015250565b600061101f602683610da9565b915061102a82610fc3565b604082019050919050565b6000602082019050818103600083015261104e81611012565b9050919050565b7f4e487b7100000000000000000000000000000000000000000000000000000000600052601160045260246000fd5b600061108f82610bc5565b915061109a83610bc5565b9250828210156110ad576110ac611055565b5b828203905092915050565b60006110c382610bc5565b91506110ce83610bc5565b9250827fffffffffffffffffffffffffffffffffffffffffffffffffffffffffffffffff0382111561110357611102611055565b5b82820190509291505056fea26469706673582212200a56613b18481fb1bf5001b15635cdd3b8a47b6be2e24eb5047d070dde4fcff964736f6c634300080d0033",
  "immutableReferences": {},
  "source": "// SPDX-License-Identifier: MIT\r\npragma solidity ^0.8.0;\r\n\r\nimport \"../node_modules/@openzeppelin/contracts/token/ERC20/IERC20.sol\";\r\nimport \"../node_modules/@openzeppelin/contracts/utils/math/SafeMath.sol\";\r\nimport \"../node_modules/@openzeppelin/contracts/access/Ownable.sol\";\r\n\r\n\r\ncontract Wallet is Ownable{\r\nusing SafeMath for uint256;\r\n\r\nstruct Token {\r\n  bytes32 ticker;\r\n  address tokenAddress;\r\n}\r\n\r\nmapping(bytes32 => Token) public tokenMapping;\r\nbytes32[] public tokenList;\r\n\r\nmapping(address => mapping(bytes32 => uint256)) public balances;\r\n\r\nmodifier tokenExist(bytes32 ticker) {\r\n  require(tokenMapping[ticker].tokenAddress != address(0), 'Token does not exist');\r\n  _;\r\n}\r\n\r\nfunction addToken(bytes32 ticker, address tokenAddress) onlyOwner external {\r\n  tokenMapping[ticker] = Token(ticker, tokenAddress);\r\n  tokenList.push(ticker);\r\n}\r\n\r\nfunction deposit(uint amount, bytes32 ticker)  tokenExist(ticker) external {\r\n  IERC20(tokenMapping[ticker].tokenAddress).transferFrom(msg.sender, address(this), amount);\r\n  balances[msg.sender][ticker] = balances[msg.sender][ticker].add(amount);\r\n}\r\n\r\nfunction withdraw(uint amount, bytes32 ticker) tokenExist(ticker) external {\r\n  require(balances[msg.sender][ticker] >= amount, 'Balance not sufficient!');\r\n\r\n  balances[msg.sender][ticker] = balances[msg.sender][ticker].sub(amount);\r\n  IERC20(tokenMapping[ticker].tokenAddress).transfer(msg.sender, amount);\r\n}\r\n\r\n\r\n}\r\n\r\n",
  "sourcePath": "C:\\Users\\Sam\\Desktop\\react\\openzeppelin\\contracts\\wallet.sol",
  "compiler": {
    "name": "solc",
    "version": "0.8.13+commit.abaa5c0e.Emscripten.clang"
  },
  "schemaVersion": "3.4.6",
  "updatedAt": "2022-03-30T11:43:11.389Z",
  "networkType": "ethereum",
  "devdoc": {
    "kind": "dev",
    "methods": {
      "owner()": {
        "details": "Returns the address of the current owner."
      },
      "renounceOwnership()": {
        "details": "Leaves the contract without owner. It will not be possible to call `onlyOwner` functions anymore. Can only be called by the current owner. NOTE: Renouncing ownership will leave the contract without an owner, thereby removing any functionality that is only available to the owner."
      },
      "transferOwnership(address)": {
        "details": "Transfers ownership of the contract to a new account (`newOwner`). Can only be called by the current owner."
      }
    },
    "version": 1
  },
  "userdoc": {
    "kind": "user",
    "methods": {},
    "version": 1
  }
}